:1080000012C03091CF0137FDFCCF3BB72BBFF80139
:108010002091CA0113E21093CA010A01E895209346
:10802000CA013BBF08950091780005FD4BC001FDDA
:10803000E5C0E0E0F0E0079116910F3F19F41F3F13
:1080400009F4DCC03FC03BB72BBFF8012091CA0147
:108050004093CA013DE930933400E8952093CA016A
:108060003BBF089520E02D9301501040E1F70895A3
:1080700025912D9301501040D9F7089584EF9EE883
:10808000FC0105911491FC013296A591B491FC017B
:10809000349625913491422F432B19F0F901E8DFF2
:1080A00001C0E0DF06961FE88030910748F308958D
:1080B00001E70DBF00E20EBFC4E2DAE20E943E40DB
:1080C0000E94FC42F0925306009100201091012082
:1080D0000A3A154511F00C940000F0920020F0923D
:1080E000012000E200937800F6CF7B2F0A2ED80102
:1080F00006C0F90161919F016D9341505040642F7A
:10810000652BB9F7A02DB72F0895AA849984888488
:108110007F806E805D804C80BB81AA81998188813F
:10812000F0E0EC0FFD1FEF010895AA929A928A9257
:108130007A926A925A924A92BA93AA939A938A939B
:108140000895AF93BF93D80101900D9241505040D4
:10815000D9F7BF91AF9108954091CA01E22FF32F53
:108160000093CA0104914093CA01089540E04BBFB7
:10817000F80158ED54BF20830895000F111F4A9550
:0E818000E2F70895169507954A95E2F70895DF
:1081F4000C94A4450C94AC4659CF6091CF0167FD13
:10820400FCCF642F652B51F0F8016491F90161935F
:108214009F010F5F1F4F41505040F3CF0895B901A4
:1082240098018B01EACF0E949540229739012A01D7
:10823400A62ED801912F80E006C02091CF0127FD02
:10824400FCCF45E217D1042D052909F442C0882446
:10825400BCD007FDFDCF00E8902EAA2059F0FC0108
:1082640005911491088319830F3F1F4F31F088241F
:10827400839403C00FEF08830983042D0529A1F01B
:10828400A817B90739F429D0088301E0401A00E09F
:10829400500A51F0FC013196AE17BF0729F40FEFD5
:1082A400400E501E1AD00983488159818C0120E068
:1082B40030E00E94014002969A9479F68C011A9556
:1082C400882009F0BACF2091CF0127FDFCCF44E2EA
:1082D400B9CF2296EBE00C9485401196F3010191FD
:1082E4003F01089561E09FCFB901EFECF1E02081F7
:1082F40027FDFDCF13D0105F98018B0196D013C0DA
:10830400B90198018B01F0CFEFECF1E0208127FD5A
:10831400FDCF04D0E02FF0E1108305C0ECEC208108
:10832400286020830895ECECF1E00081077F00834E
:108334000895EFECF1E0008107FDFDCF008101FF1E
:1083440007C006E30093CA0121E00BEC11E04CD115
:108354000895BAD2C801B22FA091CA01EADF35D07C
:1083640007FDFDCF1B2F082FCFDF00E00093C201D4
:108374009093C1018093C00105E331D1A093CA0158
:1083840052C38A938091CA012AD18093CA01F8C04A
:108394001091CF0117FDFCCF10E2019F00E0009384
:1083A400C2011092C1010092C00105E3EACF5B2F24
:1083B4006A2FD8010AD007FDFDCF40E030E21D91BD
:1083C40045D0E9F7A62FB52F08950091CF01089560
:1083D4000E949A40C8012901DA010DC08201E7DF39
:1083E40045E08C010E94C440D3DF809600E2400E39
:1083F40000E0501E90970A2F0B2B79F0082F0F7175
:1084040021F4A03200E0B00748F7F20121912F01D6
:108414008C019FDF01961197EECFE6E00C948A4021
:10842400D7CF62E770E2260F371F0C94754068EED1
:1084340070E2F9CF8A93802F7CDFC7DF07FDFDCF81
:1084440040E030E2182F02D0E9F79AC0042F5CDF35
:1084540043953A950895B9DF07FDFDCF40E200E06A
:1084640010E008D00FEFE6DFB0DF07FDFDCF00E33B
:1084740088DF48C220E030E00C942340F894E0E028
:10848400F0E20AEA15E50083118320917900216066
:1084940009E710E0A9D0FFCF0FBF08950FB7F894F4
:1084A40010E41093CA0410E21093CA04E1ECF4E05F
:1084B400108111601083E9EC108112601083E8ECE4
:1084C400108110641083E9EC108111601083E8ECD2
:1084D400108110681083E0CF2AE107D00093FA04DA
:1084E4002BE103D00093FB04089580D00F3F09F4DF
:1084F4000FE10895D1CF4FB7F8941095F0E0E02F35
:10850400E059FF4F008101230083042FF3CF8A93A6
:1085140000E00093600010E4EEDF23E004E410E0E8
:1085240063D0CFD40064008301E0009360008FB770
:10853400F89410E002E028E0129FF001EC50FF4DA7
:1085440020E0258313950A95B1F7C6DF0091C00496
:108554000093C004B6D400680083008100610083E6
:1085640008EF10E2E6EC00831183E0EC66D40FEF31
:108574000583E8EC00810160008390DF082F8CDF25
:108584008991089589CF24E001E410E02DD02DE1F4
:108594002DD0009362002CE129D0009363000FB723
:1085A400F894E0E5F0E0108112601083EBDFE1E580
:1085B400008101FFFDCF21E000E410E015D0E6E5E5
:1085C400F0E00081097F008300E807870BEB008B54
:1085D400008104600083E0E600810160A8CE00937E
:1085E400CA0121E00BEC11E00C94B64030E002E04B
:1085F4000C94AC4027E402EA10E0F6DFC4DF789480
:1086040086DFFFCFE0EFF0E200E0028301E010E05C
:1086140000831183089500910C210F770093C30404
:108624000895A7D1068F178F20A331A30895A1D150
:10863400208D018D0A9529F00A9599F00A95B9F0D3
:108644001DC02091D22030E002ED10E29BD191D1E7
:10865400FFD220A131A10217130710F400A311A324
:1086640051C1E0ECF0E2228133818F01EFCF22236C
:1086740029F424E030E004EE10E2E8CF77C075D0AE
:1086840006A702E002AB00E004A305A302A303A330
:10869400089500E00093EE20A1D000919000009393
:1086A400E820009191000093E9200091920000934A
:1086B400EA20009193000093EB200091D00101FB8C
:1086C40016F001E001C000E01BC14CD00F7141F570
:1086D40028D007FF13C0112329F0165041F012507F
:1086E40039F01EC022E030E000EF10E205C09FCF59
:1086F40021E030E002EF10E245D104C1155019F039
:10870400145031F00DC00DE013E402A313A3F5CF10
:1087140079DF2FD1008D0093F220002371F3B9CFBC
:1087240025C010910B2125D1068908951ED000A3E0
:1087340001A302A303A304A305A3068907FF03C09F
:1087440087D2012B71F00ED0007619F4BEDF00231E
:1087540039F408D00F71013021F40AD0002309F054
:10876400D1C004C000910A21089503D100E0089506
:10877400BA93AA93F7DF0076003271F5D2DF07FFD0
:1087840010C0125041F01A9529F526E030E002E2BB
:1087940011E2F8D01DC0ACEEB0E221D0D9F00995B9
:1087A4001CC01A9521F01350A9F418D011C00091DF
:1087B400EE20002329F000E412E402A313A308C06E
:1087C40020E430E003E311E2DDD005EC14E4D4D07E
:1087D40001E003C00FE033D000E05FC150CF59D1B6
:1087E40000E0E030F0070895033041F0023031F04A
:1087F400043021F0053011F011E001C010E01093B5
:10880400302112E0019FF001E356FF4D4081F181D8
:108814000AE111E2E42F48E050E00C94A140E3E3C4
:10882400F1E20281002351F40381013118F008E0E0
:1088340006D09CCFD9DF99DF04AB05AB63C00093AE
:1088440022210AE00093262108953ED0A4EFB0E24D
:10885400FD0106A917A9012B39F400E018EF06ABB6
:1088640017AB80E098E010C0FD0186A997A9082FF6
:10887400092B49F1983010F080E098E006A917A977
:10888400081B190B06AB17ABAC01DDD062A5F3A531
:10889400E62F099504E711E207C0FD0124A935A9D3
:1088A4002F5F3F4F24AB35AB9C010197232BE1F2A3
:1088B400F80121918F012F3F81F305E000932221DC
:1088C4000AE215E421D0AFC00C949C4022D019F0E8
:1088D40025D011F429D04ACFB8DF14C01AD019F02A
:1088E4001DD011F421D042CF0091EF2014AD01230B
:1088F40019F00BE914E402C008E115E405D002C044
:108904000093EF2001E00895E8EEF0E2048315837C
:10891400089505E311E265D0002308952AD022A525
:1089240033A520303040089503E006A70AE002ABE7
:10893400089503E00093222102E00093262116CF3C
:108944000091EF2010913021012309F0F2CF11D0D2
:1089540024A535A52030304011F4E6DF02C0D9DF6C
:1089640009F404CF20E038E00BD005E315E404D08B
:10897400C9CFE4EFF0E20895FCDF04A315A3089542
:1089840004E711E24ECE2ADF00E0E8EEF0E20483D1
:108994000583E3E3F1E210810181003021E0120755
:1089A40009F4CECF003023E0120709F497CF013049
:1089B400120709F48BCF003024E0120731F44BDDA9
:1089C400002300E009F408959BCF0330120721F43B
:1089D40001E00093EE2008950330164009F41FCF00
:1089E400C5CE72DFF80150810181402FA8E2B1E2C7
:1089F4000D935C93D5979281038120E0FD0106A03D
:108A040017A020A431A4001591052205230520F008
:108A140008E08BDF00E007C0041B802F950B019654
:108A240086AB97AB01E0E4E00C948C4039D046A9C6
:108A340057A909D09A962DD09B970995FD0126A98F
:108A440037A99EDF29C024A935A904E711E20895B6
:108A540090DF24A905A9009374212093752122E0B5
:108A640030E08EDF4FCF1CD004A915A946A957A921
:108A7400202F2F73622F70E024E731E2260F371F77
:108A84009C9607D09D97099500E0FD0104A305A3DA
:108A940003C0ED91FC91089501E0A991B991089565
:108AA400BA93AA93A4EFB0E2FD0108959D01E8EC06
:108AB40009D20F7D008300810F7D0083E7D002E09F
:108AC4000593A2E0B1E200E010E00D930C935396FD
:108AD40000E2069300E406936DD0069300E4069347
:108AE4001D931D931D931C9315971D931C9311AFF8
:108AF400D901089528EF30E212E0019F1EE101221E
:108B040010E007FB00E000F9000D43E00E94BF40C5
:108B1400020F131F08952051304041F0205130407E
:108B240039F02052304031F050E405C051E403C024
:108B340052E401C053E44AD100E0018306E000831B
:108B44005183089531D10091CB0407FF02C000E89E
:108B540027C09DD1002329F5EBECB4D104FF17C045
:108B640000E1ACD14FDD00E00093C30420E430E029
:108B740010E0D1DF20E430E010E000E8CCDF04E7CF
:108B840019E20093FC201093FD2061D00AC00081FB
:108B940006FF02C000E404C0008105FF02C000E239
:108BA4008DD1F2D0189504E00093312103D002E076
:108BB40006930895E8EFF0E20895BA93AA93A6E124
:108BC400B1E20DDE09F0099568CFBDD0033011F490
:108BD4003DD03BC0B4D080A191A1801B910B282F24
:108BE400292BD1F4A3D034D00217130719F006AD02
:108BF400002311F0D8DF29C004A115A120E0003022
:108C0400120789F0F8010995002369F0FD0100E0DD
:108C140002AF03AF80A191A1803400E0900718F067
:108C240080E490E001C001E000933221FD018687D9
:108C34009787068D178D22AD33AD020F131F008B5E
:108C4400118B89016ED022D0B2DFEDCEB6DF2ECFEC
:108C5400048D158D089505E000933121E1E0F1E2E2
:108C640004E00593E9EFF0E204E0059308951B2F77
:108C74002A2F7FDEDF01DD9603E00C9300E00687F8
:108C8400078704D094DFA22FB12F0895E0E0F1E22A
:108C9400089559D0043011F4D9DF42C0FD01868112
:108CA400978162AD73AD00A111A19B01280F391FFB
:108CB4000217130718F4C801861B970BAC0124E7AD
:108CC40039E2068D178D060F171FAFDB38D029D078
:108CD4008034904031F42ED0448D558D24173507BF
:108CE40050F000A311A394967ADD19F0099500239E
:108CF40079F0BDDF15C020A131A12017310779F427
:108D04009496C7DE95976CDD19F00995002311F44C
:108D1400A2DF06C014D00AD000E002AF03AF46DFE2
:108D240082CE080F191F02AF13AF089503D020AFEE
:108D340031AF089520AD31AD200F311F0895FD01ED
:108D440002AD13AD08950E949C40A4EFB0E20091DF
:108D54003121089529D098D001FD02C085D099F41D
:108D640002E00093CC040091C5042FD0008105FFDC
:108D740005C02BD000E206938CDF05C000E826D0A6
:108D840000E2069322DF0DCF8FBF0991199129913B
:108D94003991499159916991799109901990299042
:108DA4003990E991F991ECCB8A93FA93EA933A9248
:108DB4002A921A920A927A936A935A934A933A930A
:108DC4002A931A930A938FB7089500E093DEF8016B
:108DD40008959A938A93BBDF002331F0033011F096
:108DE400043009F4EADE33DFC4DD86819781089715
:108DF40009F548E050E024E739E20AE011E215DB26
:108E0400E8ECF4E01AD019D091DC002311F423DF4C
:108E140011C089DC07FF05C013D002E005AFD5DE21
:108E240009C016DF012B11F422DF04C009D001E0D0
:108E340005AFBCDE8991999108950081006277CADB
:108E440000E000AF01AF02AF03AF08951DD001FDF4
:108E54000AC00AD009F008957ADF013009F407CF77
:108E6400043009F4FBDE089530D056CD0DD001FD59
:108E74000AC0FADF09F008956ADF023009F493CEDC
:108E8400033009F4EBDE08950091CC040895EBEC73
:108E940019D002FF08C0F093CA040091002106FF14
:108EA4000BC0D4DF09C0008101FF07C002E006D077
:108EB4000091F82006FDDADF25CD58CC0093CA04D2
:108EC4000895E0ECF4E000810895DEDF00FF4ECC6D
:108ED40001E00093CC046EDE00E80693D7DE00E8E0
:108EE400069301E0EBDF66DE00E1069372DF0ACD54
:108EF400CC08E820000076007220008F05000000F6
:108F040080000011417441000400008241124203B8
:108F14000000001342000004000000194200000099
:108F24000000000000000075207D2095209520851C
:108F3400208D20952095209520952095209520958D
:108F4400209520952095209520000902120001010A
:108F540000C0320904000000FF00000012010002FA
:108F640000000040EB03E42F0500000000010403AF
:028F74000904EE
:008000017F
:00000001FF
